{
  "_format": "hh-sol-artifact-1",
  "contractName": "WavePortal",
  "sourceName": "contracts/WavePortal.sol",
  "abi": [
    {
      "inputs": [],
      "stateMutability": "payable",
      "type": "constructor"
    },
    {
      "anonymous": false,
      "inputs": [
        {
          "indexed": true,
          "internalType": "address",
          "name": "from",
          "type": "address"
        },
        {
          "indexed": false,
          "internalType": "uint256",
          "name": "timestamp",
          "type": "uint256"
        },
        {
          "indexed": false,
          "internalType": "string",
          "name": "message",
          "type": "string"
        }
      ],
      "name": "NewWave",
      "type": "event"
    },
    {
      "inputs": [],
      "name": "getAllWaves",
      "outputs": [
        {
          "components": [
            {
              "internalType": "address",
              "name": "waver",
              "type": "address"
            },
            {
              "internalType": "string",
              "name": "message",
              "type": "string"
            },
            {
              "internalType": "uint256",
              "name": "timestamp",
              "type": "uint256"
            }
          ],
          "internalType": "struct WavePortal.Wave[]",
          "name": "",
          "type": "tuple[]"
        }
      ],
      "stateMutability": "view",
      "type": "function"
    },
    {
      "inputs": [],
      "name": "getTotalWaves",
      "outputs": [
        {
          "internalType": "uint256",
          "name": "",
          "type": "uint256"
        }
      ],
      "stateMutability": "view",
      "type": "function"
    },
    {
      "inputs": [
        {
          "internalType": "address",
          "name": "",
          "type": "address"
        }
      ],
      "name": "lastWavedAt",
      "outputs": [
        {
          "internalType": "uint256",
          "name": "",
          "type": "uint256"
        }
      ],
      "stateMutability": "view",
      "type": "function"
    },
    {
      "inputs": [],
      "name": "wave",
      "outputs": [],
      "stateMutability": "nonpayable",
      "type": "function"
    },
    {
      "inputs": [
        {
          "internalType": "string",
          "name": "_message",
          "type": "string"
        }
      ],
      "name": "waveMessage",
      "outputs": [],
      "stateMutability": "nonpayable",
      "type": "function"
    }
  ],
  "bytecode": "0x6080604052655af3107a4000600155620000596040518060400160405280601a81526020017f536d61727420436f6e7472616374205374617274656420212121000000000000815250620000a660201b62000ae01760201c565b6200007e60405180602001604052806000815250620000a660201b62000ae01760201c565b606444426200008e9190620001ab565b6200009a919062000215565b6002819055506200030b565b6200014681604051602401620000bd9190620002e7565b6040516020818303038152906040527f41304fac000000000000000000000000000000000000000000000000000000007bffffffffffffffffffffffffffffffffffffffffffffffffffffffff19166020820180517bffffffffffffffffffffffffffffffffffffffffffffffffffffffff83818316178352505050506200014960201b60201c565b50565b60008151905060006a636f6e736f6c652e6c6f679050602083016000808483855afa5050505050565b6000819050919050565b7f4e487b7100000000000000000000000000000000000000000000000000000000600052601160045260246000fd5b6000620001b88262000172565b9150620001c58362000172565b9250828201905080821115620001e057620001df6200017c565b5b92915050565b7f4e487b7100000000000000000000000000000000000000000000000000000000600052601260045260246000fd5b6000620002228262000172565b91506200022f8362000172565b925082620002425762000241620001e6565b5b828206905092915050565b600081519050919050565b600082825260208201905092915050565b60005b83811015620002895780820151818401526020810190506200026c565b60008484015250505050565b6000601f19601f8301169050919050565b6000620002b3826200024d565b620002bf818562000258565b9350620002d181856020860162000269565b620002dc8162000295565b840191505092915050565b60006020820190508181036000830152620003038184620002a6565b905092915050565b6118a9806200031b6000396000f3fe608060405234801561001057600080fd5b50600436106100575760003560e01c80635041c2971461005c5780636fe15b44146100785780639a2cdc0814610082578063a42a4663146100a0578063bd43a908146100d0575b600080fd5b61007660048036038101906100719190610ed3565b6100ee565b005b6100806104e4565b005b61008a610914565b6040516100979190610f35565b60405180910390f35b6100ba60048036038101906100b59190610fae565b610977565b6040516100c79190610f35565b60405180910390f35b6100d861098f565b6040516100e5919061118a565b60405180910390f35b42610384600460003373ffffffffffffffffffffffffffffffffffffffff1673ffffffffffffffffffffffffffffffffffffffff1681526020019081526020016000205461013c91906111db565b1061017c576040517f08c379a00000000000000000000000000000000000000000000000000000000081526004016101739061126c565b60405180910390fd5b42600460003373ffffffffffffffffffffffffffffffffffffffff1673ffffffffffffffffffffffffffffffffffffffff1681526020019081526020016000208190555060016000808282546101d291906111db565b925050819055506102196040518060400160405280601d81526020017f2573206861732077617665642077697468206d6573736167653a2025730000008152503383610b79565b600360405180606001604052803373ffffffffffffffffffffffffffffffffffffffff16815260200183815260200142815250908060018154018082558091505060019003906000526020600020906003020160009091909190915060008201518160000160006101000a81548173ffffffffffffffffffffffffffffffffffffffff021916908373ffffffffffffffffffffffffffffffffffffffff16021790555060208201518160010190816102d19190611498565b50604082015181600201555050606460025444426102ef91906111db565b6102f991906111db565b6103039190611599565b60028190555061034a6040518060400160405280601681526020017f52616e646f6d20232067656e6572617465643a20256400000000000000000000815250600254610c18565b603260025411610488576103936040518060400160405280600781526020017f257320776f6e210000000000000000000000000000000000000000000000000081525033610cb4565b4760015411156103d8576040517f08c379a00000000000000000000000000000000000000000000000000000000081526004016103cf9061163c565b60405180910390fd5b60003373ffffffffffffffffffffffffffffffffffffffff166001546040516104009061168d565b60006040518083038185875af1925050503d806000811461043d576040519150601f19603f3d011682016040523d82523d6000602084013e610442565b606091505b5050905080610486576040517f08c379a000000000000000000000000000000000000000000000000000000000815260040161047d90611714565b60405180910390fd5b505b3373ffffffffffffffffffffffffffffffffffffffff167f5f7e16dc676677766a70e9c5628aa6c54ddb8b6e5188e2ae1e1f17f1ffbea71642836040516104d092919061176d565b60405180910390a26104e0610914565b5050565b42610384600460003373ffffffffffffffffffffffffffffffffffffffff1673ffffffffffffffffffffffffffffffffffffffff1681526020019081526020016000205461053291906111db565b10610572576040517f08c379a00000000000000000000000000000000000000000000000000000000081526004016105699061126c565b60405180910390fd5b42600460003373ffffffffffffffffffffffffffffffffffffffff1673ffffffffffffffffffffffffffffffffffffffff1681526020019081526020016000208190555060006040518060400160405280601081526020017f4e6f206d6573736167652073656e742e000000000000000000000000000000008152509050600160008082825461060291906111db565b925050819055506106496040518060400160405280601d81526020017f2573206861732077617665642077697468206d6573736167653a2025730000008152503383610b79565b600360405180606001604052803373ffffffffffffffffffffffffffffffffffffffff16815260200183815260200142815250908060018154018082558091505060019003906000526020600020906003020160009091909190915060008201518160000160006101000a81548173ffffffffffffffffffffffffffffffffffffffff021916908373ffffffffffffffffffffffffffffffffffffffff16021790555060208201518160010190816107019190611498565b506040820151816002015550506064600254444261071f91906111db565b61072991906111db565b6107339190611599565b60028190555061077a6040518060400160405280601681526020017f52616e646f6d20232067656e6572617465643a20256400000000000000000000815250600254610c18565b6032600254116108b8576107c36040518060400160405280600781526020017f257320776f6e210000000000000000000000000000000000000000000000000081525033610cb4565b476001541115610808576040517f08c379a00000000000000000000000000000000000000000000000000000000081526004016107ff9061163c565b60405180910390fd5b60003373ffffffffffffffffffffffffffffffffffffffff166001546040516108309061168d565b60006040518083038185875af1925050503d806000811461086d576040519150601f19603f3d011682016040523d82523d6000602084013e610872565b606091505b50509050806108b6576040517f08c379a00000000000000000000000000000000000000000000000000000000081526004016108ad90611714565b60405180910390fd5b505b3373ffffffffffffffffffffffffffffffffffffffff167f5f7e16dc676677766a70e9c5628aa6c54ddb8b6e5188e2ae1e1f17f1ffbea716428360405161090092919061176d565b60405180910390a2610910610914565b5050565b60006109576040518060400160405280601781526020017f5765206861766520256420746f74616c20776176657321000000000000000000815250600054610c18565b61096f60405180602001604052806000815250610ae0565b600054905090565b60046020528060005260406000206000915090505481565b60606003805480602002602001604051908101604052809291908181526020016000905b82821015610ad757838290600052602060002090600302016040518060600160405290816000820160009054906101000a900473ffffffffffffffffffffffffffffffffffffffff1673ffffffffffffffffffffffffffffffffffffffff1673ffffffffffffffffffffffffffffffffffffffff168152602001600182018054610a3c906112bb565b80601f0160208091040260200160405190810160405280929190818152602001828054610a68906112bb565b8015610ab55780601f10610a8a57610100808354040283529160200191610ab5565b820191906000526020600020905b815481529060010190602001808311610a9857829003601f168201915b50505050508152602001600282015481525050815260200190600101906109b3565b50505050905090565b610b7681604051602401610af4919061179d565b6040516020818303038152906040527f41304fac000000000000000000000000000000000000000000000000000000007bffffffffffffffffffffffffffffffffffffffffffffffffffffffff19166020820180517bffffffffffffffffffffffffffffffffffffffffffffffffffffffff8381831617835250505050610d50565b50565b610c13838383604051602401610b91939291906117ce565b6040516020818303038152906040527fe0e9ad4f000000000000000000000000000000000000000000000000000000007bffffffffffffffffffffffffffffffffffffffffffffffffffffffff19166020820180517bffffffffffffffffffffffffffffffffffffffffffffffffffffffff8381831617835250505050610d50565b505050565b610cb08282604051602401610c2e929190611813565b6040516020818303038152906040527fb60e72cc000000000000000000000000000000000000000000000000000000007bffffffffffffffffffffffffffffffffffffffffffffffffffffffff19166020820180517bffffffffffffffffffffffffffffffffffffffffffffffffffffffff8381831617835250505050610d50565b5050565b610d4c8282604051602401610cca929190611843565b6040516020818303038152906040527f319af333000000000000000000000000000000000000000000000000000000007bffffffffffffffffffffffffffffffffffffffffffffffffffffffff19166020820180517bffffffffffffffffffffffffffffffffffffffffffffffffffffffff8381831617835250505050610d50565b5050565b60008151905060006a636f6e736f6c652e6c6f679050602083016000808483855afa5050505050565b6000604051905090565b600080fd5b600080fd5b600080fd5b600080fd5b6000601f19601f8301169050919050565b7f4e487b7100000000000000000000000000000000000000000000000000000000600052604160045260246000fd5b610de082610d97565b810181811067ffffffffffffffff82111715610dff57610dfe610da8565b5b80604052505050565b6000610e12610d79565b9050610e1e8282610dd7565b919050565b600067ffffffffffffffff821115610e3e57610e3d610da8565b5b610e4782610d97565b9050602081019050919050565b82818337600083830152505050565b6000610e76610e7184610e23565b610e08565b905082815260208101848484011115610e9257610e91610d92565b5b610e9d848285610e54565b509392505050565b600082601f830112610eba57610eb9610d8d565b5b8135610eca848260208601610e63565b91505092915050565b600060208284031215610ee957610ee8610d83565b5b600082013567ffffffffffffffff811115610f0757610f06610d88565b5b610f1384828501610ea5565b91505092915050565b6000819050919050565b610f2f81610f1c565b82525050565b6000602082019050610f4a6000830184610f26565b92915050565b600073ffffffffffffffffffffffffffffffffffffffff82169050919050565b6000610f7b82610f50565b9050919050565b610f8b81610f70565b8114610f9657600080fd5b50565b600081359050610fa881610f82565b92915050565b600060208284031215610fc457610fc3610d83565b5b6000610fd284828501610f99565b91505092915050565b600081519050919050565b600082825260208201905092915050565b6000819050602082019050919050565b61101081610f70565b82525050565b600081519050919050565b600082825260208201905092915050565b60005b83811015611050578082015181840152602081019050611035565b60008484015250505050565b600061106782611016565b6110718185611021565b9350611081818560208601611032565b61108a81610d97565b840191505092915050565b61109e81610f1c565b82525050565b60006060830160008301516110bc6000860182611007565b50602083015184820360208601526110d4828261105c565b91505060408301516110e96040860182611095565b508091505092915050565b600061110083836110a4565b905092915050565b6000602082019050919050565b600061112082610fdb565b61112a8185610fe6565b93508360208202850161113c85610ff7565b8060005b85811015611178578484038952815161115985826110f4565b945061116483611108565b925060208a01995050600181019050611140565b50829750879550505050505092915050565b600060208201905081810360008301526111a48184611115565b905092915050565b7f4e487b7100000000000000000000000000000000000000000000000000000000600052601160045260246000fd5b60006111e682610f1c565b91506111f183610f1c565b9250828201905080821115611209576112086111ac565b5b92915050565b600082825260208201905092915050565b7f576169742031356d696e73206265747765656e20776176657300000000000000600082015250565b600061125660198361120f565b915061126182611220565b602082019050919050565b6000602082019050818103600083015261128581611249565b9050919050565b7f4e487b7100000000000000000000000000000000000000000000000000000000600052602260045260246000fd5b600060028204905060018216806112d357607f821691505b6020821081036112e6576112e561128c565b5b50919050565b60008190508160005260206000209050919050565b60006020601f8301049050919050565b600082821b905092915050565b60006008830261134e7fffffffffffffffffffffffffffffffffffffffffffffffffffffffffffffffff82611311565b6113588683611311565b95508019841693508086168417925050509392505050565b6000819050919050565b600061139561139061138b84610f1c565b611370565b610f1c565b9050919050565b6000819050919050565b6113af8361137a565b6113c36113bb8261139c565b84845461131e565b825550505050565b600090565b6113d86113cb565b6113e38184846113a6565b505050565b5b81811015611407576113fc6000826113d0565b6001810190506113e9565b5050565b601f82111561144c5761141d816112ec565b61142684611301565b81016020851015611435578190505b61144961144185611301565b8301826113e8565b50505b505050565b600082821c905092915050565b600061146f60001984600802611451565b1980831691505092915050565b6000611488838361145e565b9150826002028217905092915050565b6114a182611016565b67ffffffffffffffff8111156114ba576114b9610da8565b5b6114c482546112bb565b6114cf82828561140b565b600060209050601f83116001811461150257600084156114f0578287015190505b6114fa858261147c565b865550611562565b601f198416611510866112ec565b60005b8281101561153857848901518255600182019150602085019450602081019050611513565b868310156115555784890151611551601f89168261145e565b8355505b6001600288020188555050505b505050505050565b7f4e487b7100000000000000000000000000000000000000000000000000000000600052601260045260246000fd5b60006115a482610f1c565b91506115af83610f1c565b9250826115bf576115be61156a565b5b828206905092915050565b7f43616e6e6f74207769746864726177206d6f7265206d6f6e6579207468616e2060008201527f74686520636f6e747261637420636f6e7461696e732e00000000000000000000602082015250565b600061162660368361120f565b9150611631826115ca565b604082019050919050565b6000602082019050818103600083015261165581611619565b9050919050565b600081905092915050565b50565b600061167760008361165c565b915061168282611667565b600082019050919050565b60006116988261166a565b9150819050919050565b7f4661696c656420746f207769746864726177206d6f6e65792066726f6d20636f60008201527f6e74726163742e00000000000000000000000000000000000000000000000000602082015250565b60006116fe60278361120f565b9150611709826116a2565b604082019050919050565b6000602082019050818103600083015261172d816116f1565b9050919050565b600061173f82611016565b611749818561120f565b9350611759818560208601611032565b61176281610d97565b840191505092915050565b60006040820190506117826000830185610f26565b81810360208301526117948184611734565b90509392505050565b600060208201905081810360008301526117b78184611734565b905092915050565b6117c881610f70565b82525050565b600060608201905081810360008301526117e88186611734565b90506117f760208301856117bf565b81810360408301526118098184611734565b9050949350505050565b6000604082019050818103600083015261182d8185611734565b905061183c6020830184610f26565b9392505050565b6000604082019050818103600083015261185d8185611734565b905061186c60208301846117bf565b939250505056fea2646970667358221220fa38f5dc190015d927a37c7826aa159965e352daf09c2b2befceb2f515cb5c8a64736f6c63430008110033",
  "linkReferences": {},
  "deployedLinkReferences": {}
}