{
  "_format": "hh-sol-artifact-1",
  "contractName": "WavePortal",
  "sourceName": "contracts/WavePortal.sol",
  "abi": [
    {
      "inputs": [],
      "stateMutability": "nonpayable",
      "type": "constructor"
    },
    {
      "anonymous": false,
      "inputs": [
        {
          "indexed": true,
          "internalType": "address",
          "name": "from",
          "type": "address"
        },
        {
          "indexed": false,
          "internalType": "uint256",
          "name": "timestamp",
          "type": "uint256"
        },
        {
          "indexed": false,
          "internalType": "string",
          "name": "message",
          "type": "string"
        }
      ],
      "name": "NewWave",
      "type": "event"
    },
    {
      "inputs": [],
      "name": "getAllWaves",
      "outputs": [
        {
          "components": [
            {
              "internalType": "address",
              "name": "waver",
              "type": "address"
            },
            {
              "internalType": "string",
              "name": "message",
              "type": "string"
            },
            {
              "internalType": "uint256",
              "name": "timestamp",
              "type": "uint256"
            }
          ],
          "internalType": "struct WavePortal.Wave[]",
          "name": "",
          "type": "tuple[]"
        }
      ],
      "stateMutability": "view",
      "type": "function"
    },
    {
      "inputs": [],
      "name": "getTotalWaves",
      "outputs": [
        {
          "internalType": "uint256",
          "name": "",
          "type": "uint256"
        }
      ],
      "stateMutability": "view",
      "type": "function"
    },
    {
      "inputs": [],
      "name": "wave",
      "outputs": [],
      "stateMutability": "nonpayable",
      "type": "function"
    },
    {
      "inputs": [
        {
          "internalType": "string",
          "name": "_message",
          "type": "string"
        }
      ],
      "name": "waveMessage",
      "outputs": [],
      "stateMutability": "nonpayable",
      "type": "function"
    }
  ],
  "bytecode": "0x60806040523480156200001157600080fd5b506200005d6040518060400160405280601a81526020017f536d61727420436f6e74726163742053746172746564202121210000000000008152506200008860201b6200053e1760201c565b62000082604051806020016040528060008152506200008860201b6200053e1760201c565b62000212565b62000128816040516024016200009f9190620001ee565b6040516020818303038152906040527f41304fac000000000000000000000000000000000000000000000000000000007bffffffffffffffffffffffffffffffffffffffffffffffffffffffff19166020820180517bffffffffffffffffffffffffffffffffffffffffffffffffffffffff83818316178352505050506200012b60201b60201c565b50565b60008151905060006a636f6e736f6c652e6c6f679050602083016000808483855afa5050505050565b600081519050919050565b600082825260208201905092915050565b60005b838110156200019057808201518184015260208101905062000173565b60008484015250505050565b6000601f19601f8301169050919050565b6000620001ba8262000154565b620001c681856200015f565b9350620001d881856020860162000170565b620001e3816200019c565b840191505092915050565b600060208201905081810360008301526200020a8184620001ad565b905092915050565b61107880620002226000396000f3fe608060405234801561001057600080fd5b506004361061004c5760003560e01c80635041c297146100515780636fe15b441461006d5780639a2cdc0814610077578063bd43a90814610095575b600080fd5b61006b60048036038101906100669190610931565b6100b3565b005b61007561022d565b005b61007f61038a565b60405161008c9190610993565b60405180910390f35b61009d6103ed565b6040516100aa9190610b8f565b60405180910390f35b60016000808282546100c59190610be0565b9250508190555061010c6040518060400160405280601d81526020017f2573206861732077617665642077697468206d6573736167653a20257300000081525033836105d7565b600160405180606001604052803373ffffffffffffffffffffffffffffffffffffffff16815260200183815260200142815250908060018154018082558091505060019003906000526020600020906003020160009091909190915060008201518160000160006101000a81548173ffffffffffffffffffffffffffffffffffffffff021916908373ffffffffffffffffffffffffffffffffffffffff16021790555060208201518160010190816101c49190610e20565b506040820151816002015550503373ffffffffffffffffffffffffffffffffffffffff167f5f7e16dc676677766a70e9c5628aa6c54ddb8b6e5188e2ae1e1f17f1ffbea7164283604051610219929190610f3c565b60405180910390a261022961038a565b5050565b600160008082825461023f9190610be0565b925050819055506102856040518060400160405280601f81526020017f257320686173207761766564213a204e6f206d6573736167652073656e742e0081525033610676565b600160405180606001604052803373ffffffffffffffffffffffffffffffffffffffff1681526020016040518060400160405280601081526020017f4e6f206d6573736167652073656e742e00000000000000000000000000000000815250815260200142815250908060018154018082558091505060019003906000526020600020906003020160009091909190915060008201518160000160006101000a81548173ffffffffffffffffffffffffffffffffffffffff021916908373ffffffffffffffffffffffffffffffffffffffff16021790555060208201518160010190816103729190610e20565b5060408201518160020155505061038761038a565b50565b60006103cd6040518060400160405280601781526020017f5765206861766520256420746f74616c20776176657321000000000000000000815250600054610712565b6103e56040518060200160405280600081525061053e565b600054905090565b60606001805480602002602001604051908101604052809291908181526020016000905b8282101561053557838290600052602060002090600302016040518060600160405290816000820160009054906101000a900473ffffffffffffffffffffffffffffffffffffffff1673ffffffffffffffffffffffffffffffffffffffff1673ffffffffffffffffffffffffffffffffffffffff16815260200160018201805461049a90610c43565b80601f01602080910402602001604051908101604052809291908181526020018280546104c690610c43565b80156105135780601f106104e857610100808354040283529160200191610513565b820191906000526020600020905b8154815290600101906020018083116104f657829003601f168201915b5050505050815260200160028201548152505081526020019060010190610411565b50505050905090565b6105d4816040516024016105529190610f6c565b6040516020818303038152906040527f41304fac000000000000000000000000000000000000000000000000000000007bffffffffffffffffffffffffffffffffffffffffffffffffffffffff19166020820180517bffffffffffffffffffffffffffffffffffffffffffffffffffffffff83818316178352505050506107ae565b50565b6106718383836040516024016105ef93929190610f9d565b6040516020818303038152906040527fe0e9ad4f000000000000000000000000000000000000000000000000000000007bffffffffffffffffffffffffffffffffffffffffffffffffffffffff19166020820180517bffffffffffffffffffffffffffffffffffffffffffffffffffffffff83818316178352505050506107ae565b505050565b61070e828260405160240161068c929190610fe2565b6040516020818303038152906040527f319af333000000000000000000000000000000000000000000000000000000007bffffffffffffffffffffffffffffffffffffffffffffffffffffffff19166020820180517bffffffffffffffffffffffffffffffffffffffffffffffffffffffff83818316178352505050506107ae565b5050565b6107aa8282604051602401610728929190611012565b6040516020818303038152906040527fb60e72cc000000000000000000000000000000000000000000000000000000007bffffffffffffffffffffffffffffffffffffffffffffffffffffffff19166020820180517bffffffffffffffffffffffffffffffffffffffffffffffffffffffff83818316178352505050506107ae565b5050565b60008151905060006a636f6e736f6c652e6c6f679050602083016000808483855afa5050505050565b6000604051905090565b600080fd5b600080fd5b600080fd5b600080fd5b6000601f19601f8301169050919050565b7f4e487b7100000000000000000000000000000000000000000000000000000000600052604160045260246000fd5b61083e826107f5565b810181811067ffffffffffffffff8211171561085d5761085c610806565b5b80604052505050565b60006108706107d7565b905061087c8282610835565b919050565b600067ffffffffffffffff82111561089c5761089b610806565b5b6108a5826107f5565b9050602081019050919050565b82818337600083830152505050565b60006108d46108cf84610881565b610866565b9050828152602081018484840111156108f0576108ef6107f0565b5b6108fb8482856108b2565b509392505050565b600082601f830112610918576109176107eb565b5b81356109288482602086016108c1565b91505092915050565b600060208284031215610947576109466107e1565b5b600082013567ffffffffffffffff811115610965576109646107e6565b5b61097184828501610903565b91505092915050565b6000819050919050565b61098d8161097a565b82525050565b60006020820190506109a86000830184610984565b92915050565b600081519050919050565b600082825260208201905092915050565b6000819050602082019050919050565b600073ffffffffffffffffffffffffffffffffffffffff82169050919050565b6000610a05826109da565b9050919050565b610a15816109fa565b82525050565b600081519050919050565b600082825260208201905092915050565b60005b83811015610a55578082015181840152602081019050610a3a565b60008484015250505050565b6000610a6c82610a1b565b610a768185610a26565b9350610a86818560208601610a37565b610a8f816107f5565b840191505092915050565b610aa38161097a565b82525050565b6000606083016000830151610ac16000860182610a0c565b5060208301518482036020860152610ad98282610a61565b9150506040830151610aee6040860182610a9a565b508091505092915050565b6000610b058383610aa9565b905092915050565b6000602082019050919050565b6000610b25826109ae565b610b2f81856109b9565b935083602082028501610b41856109ca565b8060005b85811015610b7d5784840389528151610b5e8582610af9565b9450610b6983610b0d565b925060208a01995050600181019050610b45565b50829750879550505050505092915050565b60006020820190508181036000830152610ba98184610b1a565b905092915050565b7f4e487b7100000000000000000000000000000000000000000000000000000000600052601160045260246000fd5b6000610beb8261097a565b9150610bf68361097a565b9250828201905080821115610c0e57610c0d610bb1565b5b92915050565b7f4e487b7100000000000000000000000000000000000000000000000000000000600052602260045260246000fd5b60006002820490506001821680610c5b57607f821691505b602082108103610c6e57610c6d610c14565b5b50919050565b60008190508160005260206000209050919050565b60006020601f8301049050919050565b600082821b905092915050565b600060088302610cd67fffffffffffffffffffffffffffffffffffffffffffffffffffffffffffffffff82610c99565b610ce08683610c99565b95508019841693508086168417925050509392505050565b6000819050919050565b6000610d1d610d18610d138461097a565b610cf8565b61097a565b9050919050565b6000819050919050565b610d3783610d02565b610d4b610d4382610d24565b848454610ca6565b825550505050565b600090565b610d60610d53565b610d6b818484610d2e565b505050565b5b81811015610d8f57610d84600082610d58565b600181019050610d71565b5050565b601f821115610dd457610da581610c74565b610dae84610c89565b81016020851015610dbd578190505b610dd1610dc985610c89565b830182610d70565b50505b505050565b600082821c905092915050565b6000610df760001984600802610dd9565b1980831691505092915050565b6000610e108383610de6565b9150826002028217905092915050565b610e2982610a1b565b67ffffffffffffffff811115610e4257610e41610806565b5b610e4c8254610c43565b610e57828285610d93565b600060209050601f831160018114610e8a5760008415610e78578287015190505b610e828582610e04565b865550610eea565b601f198416610e9886610c74565b60005b82811015610ec057848901518255600182019150602085019450602081019050610e9b565b86831015610edd5784890151610ed9601f891682610de6565b8355505b6001600288020188555050505b505050505050565b600082825260208201905092915050565b6000610f0e82610a1b565b610f188185610ef2565b9350610f28818560208601610a37565b610f31816107f5565b840191505092915050565b6000604082019050610f516000830185610984565b8181036020830152610f638184610f03565b90509392505050565b60006020820190508181036000830152610f868184610f03565b905092915050565b610f97816109fa565b82525050565b60006060820190508181036000830152610fb78186610f03565b9050610fc66020830185610f8e565b8181036040830152610fd88184610f03565b9050949350505050565b60006040820190508181036000830152610ffc8185610f03565b905061100b6020830184610f8e565b9392505050565b6000604082019050818103600083015261102c8185610f03565b905061103b6020830184610984565b939250505056fea26469706673582212201dc7974e35c962df25eaf06dc3f09b716641efaddf179b1424f850d952b57c0264736f6c63430008110033",
  "linkReferences": {},
  "deployedLinkReferences": {}
}